:1000000012C017C016C015C014C013C012C011C052
:1000100010C00FC00EC048C00CC00BC00AC009C041
:1000200008C007C006C011241FBECFEDCDBF1ED033
:100030009FC0E6CF83E087BB18BA11BA12BA80E23C
:100040008BBF84E080BD15BE80E88FBF089592B954
:1000500089B988E18AB98EE083B908955D9BFECFA6
:100060008CB908955F9BFECF8CB1089583E087BB68
:1000700018BA11BA12BA80E28BBF84E080BD15BEF7
:1000800080E88FBF12B88CE089B988E18AB98EE028
:1000900083B97894C19A5F9BFECF8CB1C0985F9B67
:1000A000FECF8CB1C09AF7CF1F920F920FB60F926E
:1000B00011248F93F894B29929C0C1985D9BFECF0B
:1000C00082E08CB95D9BFECF1CB85D9BFECF88E0C3
:1000D0008CB95D9BFECF1CB85D9BFECF81E28CB9D5
:1000E0005D9BFECF81E08CB95D9BFECF81E08CB93A
:1000F0005D9BFECF1CB85D9BFECF1CB85D9BFECF09
:1001000083EF8CB95D9BFECF8EE58CB9B29B29C085
:10011000C19A5D9BFECF82E08CB95D9BFECF1CB87F
:100120005D9BFECF88E08CB95D9BFECF1CB85D9BCC
:10013000FECF80E28CB95D9BFECF81E08CB95D9BE8
:10014000FECF81E08CB95D9BFECF1CB85D9BFECFDE
:100150001CB85D9BFECF88EF8CB95D9BFECF8AE11A
:100160008CB978948F910F900FBE0F901F901895B7
:04017000F894FFCF31
:00000001FF
